:020000040001F9
:10B000009857002049B1010063B1010065B101000A
:10B010000000000000000000000000000000000030
:10B0200000000000000000000000000067B1010007
:10B03000000000000000000069B101006BB10100D8
:10B040006DB101006DB10100D111020039000200A3
:10B050006DB101000000000071CB01006DB3010073
:10B06000550902006DB101009D0902006DB101009A
:10B070006DB101006DB101006DB101006DB1010054
:10B080006DB10100A1F701006DB101006DB10100CA
:10B09000BD0002006DB10100C50002006DB10100EC
:10B0A0006DB101006DB10100000000000000000062
:10B0B0000000000000000000000000000000000090
:10B0C0000348854600F022F900480047F14A020093
:10B0D00098570020401E00BF00BF00BF00BF00BF48
:10B0E00000BF00BF00BF00BF00BF00BF00BFF1D165
:10B0F00070470000401E00BF00BF00BF00BF00BF80
:10B1000000BF00BF00BF00BF00BF00BF00BFF1D144
:10B1100070470000056885F308884068FF2464B222
:10B12000EFF30585002D01D1A646004725460646CA
:10B1300021273FBAF0B40024002500260027F0B4F0
:10B14000F92040B2004700000321094802680A4381
:10B150000260084802680A430260074880470748BF
:10B160000047FEE7FEE7FEE7FEE7FEE7FEE700003A
:10B17000240500405405004089080200C1B00100C8
:10B1800030B50B46014600202022012409E00D467F
:10B19000D5409D4205D31D469540491B2546954007
:10B1A00040191546521E002DF1DC30BD70B500244B
:10B1B0002546002801DA01244042002901DA012550
:10B1C0004942FFF7DDFFAC4200D04042002C00D0E6
:10B1D000494270BDF0B51FB40646002082B0054656
:10B1E0004024019100901BE0019922460F46304611
:10B1F00000F07AF8049A059B801A994110D3104602
:10B200001946224600F060F8361A8F41019722460F
:10B2100001200021009F00F057F838184D410090A0
:10B220002046641E0028DFDC019B00982946324638
:10B2300007B0F0BD0549064A08685043054A801822
:10B240000860400870470149086070475422002098
:10B250006D4EC6413930000003460B439B0703D0B7
:10B2600009E008C9121F08C0042AFAD203E00B78CB
:10B270000370401C491C521EF9D27047D2B201E043
:10B280000270401C491EFBD270470022F6E710B541
:10B2900013460A4604461946FFF7F0FF204610BD44
:10B2A000421C0178401C0029FBD1801A704730B540
:10B2B00004460020034600E05B1C934203D2E05C9E
:10B2C000CD5C401BF8D030BD10B5202A04DB014610
:10B2D000203A9140002010BD914020239C1A034643
:10B2E000E3401943904010BD10B5202A04DB084606
:10B2F000203AD040002110BD0B46D340D04020243E
:10B30000A21A91400843194610BD0000064C0125C1
:10B31000064E05E0E36807CC2B430C3C98471034FD
:10B32000B442F7D3FFF7D0FE98800200B880020045
:10B3300030B58C180278401C13071B0F01D103781D
:10B34000401C120906D10278401C03E005780D70FC
:10B35000401C491C5B1EF9D101E00B70491C521EB8
:10B36000FBD1A142E6D3002030BD0000F0B5154C62
:10B370000026E0680125144F83B0002811D005F0A5
:10B38000B9FF00280BD00120B86069460E70E06854
:10B390000190207C0881A57421686846884703B025
:10B3A000F0BD0A4806600120B86009480660694699
:10B3B0000D7080688880A57421686846884703B04E
:10B3C000F0BD0000482C00200073004000710040D8
:10B3D0000075004010B50A461023024900F004F839
:10B3E00010BD0000962D0020F8B514460D4601460C
:10B3F0001A462046FFF730FF1D4F7D603C6001F08C
:10B400003DFF0A2000F0B8FE09241A4D01F018FF94
:10B410003E680021002082009219535C401CEB5CC6
:10B42000C0B253540428F6D3491CC9B20429F1D33D
:10B43000204600F0A1FE01F03BFE641E2406240E0F
:10B44000E4D101F0FDFE3C680021002082001219C9
:10B45000535C401CEB5CC0B253540428F6D3491C27
:10B46000C9B20429F1D3002000F086FEF8BD000027
:10B47000D4210020C87D020030B58DB00C460546B1
:10B48000102209496846FFF7E7FE1022294604A862
:10B49000FFF7E2FE68464DDF1022204608A9FFF7BD
:10B4A000DBFE0DB030BD0000962D002008B56A46C9
:10B4B000107003485170C1686846884708BD000095
:10B4C000EC7B0200F0B5054685B00C46806801F0C3
:10B4D00085F8A868083001F081F8A9680878002884
:10B4E00002D14A78002A67D04A780B7811021943B2
:10B4F00049BAC904C90C6180AA684009967AD77A0A
:10B500007308F607BC46360F7F093E436746FF06C1
:10B51000FF0EBC46177B1033BA089646BA07920F47
:10B520001701BF1A9B06B6059A1963465B04D31828
:10B530007246D206D20B9A18BB061B0DD218226196
:10B540000092AA68567B977B7308F607BC46360FB5
:10B550007F093E436746FF06FF0E0297D27B1033FA
:10B5600097089207BC46920F1701BA1A9B06B605B8
:10B570009B19029F01937E049B196746FE06F60BFA
:10B5800092069B19120D9A1804969446626108223D
:10B590002270AA68D94FD37896781A02324352BAE9
:10B5A0001205120DA281022807D0042837D0D44EEC
:10B5B000062872D0052871D09EE1B88981426ED1EB
:10B5C00000286CD06146009800F072FA002867D11C
:10B5D000CC4A2169D068814262D3A8680679437950
:10B5E00036029B19C6788078360400063018181881
:10B5F0006060A868057A437A2D025B19C579807965
:10B600002D04000628181818A06007202070D068A4
:10B61000814244D90020D16004F084FA6CE1A8682A
:10B620008378007A0390B8891E09814237D10028B7
:10B6300035D0F889824232D16146009800F038FA5C
:10B64000002804D0002E0AD0022E29D129E0052E90
:10B6500019D0022E25D0032E3DD0042E4DD0B97A1C
:10B6600000296DD0A748276900698446674517D32C
:10B67000AA680020031DD35C994250D0401CC0B280
:10B680000428F7D397E0A0490123142268680968C9
:10B6900000F036FD7E2005B0F0BD7BE0D0E074E028
:10B6A0009CE0A868027A417A12028918C2798079EE
:10B6B000120400061018091861600298019A4004EB
:10B6C000121804981018914A8218032000F04AFEBC
:10B6D00000F0C8FEEAE08B4920698A6990427DD378
:10B6E00003222270039A92074FD08A6990424CD964
:10B6F0008861002004F016FAFEE0824920694A6958
:10B7000090426BD304222270039A92073DD04A697B
:10B7100090423AD94861002004F004FAECE0042891
:10B7200049D20398800706D07649674503D900209F
:10B730000F6104F0F7F9012E02D0002E03D025E0AE
:10B7400026700020A7E7724A00209179072900D0CF
:10B750000846A9684B7A012181400B4216D0D07867
:10B7600015795279C006AD06C00B2D0D9206401911
:10B77000920E236961698018DA03C903D20BC90BE1
:10B78000824218D8884216D82670B5E0082020706A
:10B79000012080E7A8688178027A0909417A0CD0F3
:10B7A00012028918C279807912040006101809184B
:10B7B000584881420DD001206DE712028918C279E4
:10B7C00080791204000610180818534980B2884284
:10B7D000F1D16146009800F06BF900E07DE00028AF
:10B7E0007BD1A9688878000942D1B889002814D093
:10B7F000628882423CD1487909790002084340BA04
:10B800000005000DF881A8688079FF2800D0B87283
:10B81000A868C079102811D343E04048F16B8142F9
:10B820006AD16088B881A089F881A8688079FF28EA
:10B8300000D0B872A868C079102832D2F07530E014
:10B84000A868027A417A12028918C27983791204AF
:10B850001B06D2188A182F498A424DD181780909CE
:10B86000012906D0022923D0032928D0042935D064
:10B8700042E0C078012804D0002806D0022809D070
:10B880000FE0387CBF21084002E0387C40210843AB
:10B89000387406E0387C400608D4002007F04EFAE1
:10B8A00004E004F09DFF1E49012008707F20F2E6AD
:10B8B0006146009800F0FCF8002815D1F6E76146D3
:10B8C000009800F0F5F800280ED1A86841790279B7
:10B8D0000802104340BA7082E3E705E06146009831
:10B8E00000F0E6F8002801D00520D4E60B48F16B03
:10B8F0008142DBD1062020700020CCE6B02D002054
:10B90000702D0020CC2F0020C0210020FB0E000055
:10B91000C8210020443322114433000078563412E9
:10B9200091210020F8B55B4E0546B07E14460F46C7
:10B93000032806D0022807D0002835D0012872D06D
:10B9400080E00020B0767DE00020534CB076E081AE
:10B95000284600F07DFA01216A4611704F48517067
:10B96000C16868468847002301220421022000F0B4
:10B9700017FB052D12D01F2501232A463846E16901
:10B9800000F0BEFB464847490088884205D00123A5
:10B990002A463846E16903F091FDF8BD1E250123D2
:10B9A0002A46381DE169EBE7284601F097FF012898
:10B9B00002D0002858D045E0207807280AD0012876
:10B9C00013D0002813D0042813D0032813D006283E
:10B9D0004AD037E034486168026C914232D1A168A4
:10B9E000C06B81422ED113253EE011253CE012258B
:10B9F0003AE0102538E00124B47600F055FB2649E2
:10BA00000020488105206946087024484C70C168B0
:10BA10006846884725480F2201680123384600F010
:10BA20006FFBF8BDFFE76088B18988420AD1002822
:10BA300008D02078032805D16169106900F038F832
:10BA400000280FD002216A4604201170507013485C
:10BA5000C16868468847002301220421032000F0C2
:10BA60009FFAF8BD0020B0760B480121017200F06A
:10BA70001BFB052D07D00D48012301682A463846D7
:10BA800000F03EFBF8BD0948012301682A46381D35
:10BA9000F6E70000B02D002004220020EC7B02001D
:10BAA00084200020FFFF0000702D0020C021002016
:10BAB0000D4A431C126801D0824201D27F20704798
:10BAC0004B1C05D0002805D0904206D88A4204D8E5
:10BAD000002070479142FBD203E08A4201D9052041
:10BAE0007047012070470000C021002010B40D4AAB
:10BAF000C003D37814795279DB06A406DB0B240D3E
:10BB000092061B19920EC9039A18C00BC90B9042DA
:10BB100004D88A4202D810BC0020704710BC012013
:10BB200070470000C821002030B593B00024009475
:10BB30006846019405900EA8109406904E480E9405
:10BB40000F941194816804A88847002817D103F046
:10BB50001DFAFF22182108A8FFF790FB08A904A8E6
:10BB6000FFF7B0FCFF25454AF5357F280ED07E282B
:10BB700013D001281CD005282DD0002846D04048DD
:10BB80000178FF202D30022938D03BE001216B469F
:10BB900019725972D16802A88847284600F0F4FC4F
:10BBA000002301220421022000F0FAF913B030BD75
:10BBB00001216B46022019725872D16802A8884789
:10BBC000002301220421032000F0EAF9284600F0B6
:10BBD000DBFC13B030BD01216B4604201972587292
:10BBE000D16802A88847002301220421032000F025
:10BBF000D7F9284600F0C8FC13B030BD2149097CB4
:10BC00004907F9D500F0C0FC13B030BD6846007C90
:10BC1000012805D0022803D0032801D00528F3D13C
:10BC2000029469460394097C6A4603291BD0117863
:10BC300011725178517291789172D178D1721179D3
:10BC400011735179517391799173D179D17308AA94
:10BC500002A9FFF767FE0C4901200870284600F092
:10BC600093FC13B030BDD178117291785172517834
:10BC700091721178D172EAE708800200EC7B020031
:10BC800093210020B02D00200422002070B57F21D8
:10BC9000FF22C9000948FFF7F1FA00F0E3FB084D65
:10BCA0000024FF2229460748FFF7E8FA204604F05F
:10BCB000E7FA641CE4B20F2CF3D370BDFC3E002005
:10BCC000840C0000F442002010B5F321FF2209018A
:10BCD0000948FFF7D3FA084800210180418081809C
:10BCE000C16001614161054A81618260C1610120D9
:10BCF00003F018FF10BD0000CC2F00204110424877
:10BD000070B5154D284605F09CFA144A00200C2108
:10BD1000414389184968491C02D02988491C298057
:10BD2000401CC0B25428F2D30D4E0024204604F02B
:10BD30008BFA0021080180194068401C02D06888F5
:10BD4000401C6880491CC9B2C829F3D3641CE4B202
:10BD50000F2CEBD370BD000040220020FC3E0020E1
:10BD6000F44200200C2250431F4A10B480180246AF
:10BD700020321378FF24DB080B7013781E2B22D09F
:10BD8000052B20D0436A1B0E4B70436A1B0C8B7033
:10BD9000838C1B0ACB70838C0B714C718C71CC71B2
:10BDA0000C7212785207520F4A72826A120E8A720D
:10BDB000826A120CCA72028D120A0A73008D4873CD
:10BDC00010BC012070474C708C70CC700C71436AB1
:10BDD0001B0E4B71436A1B0C8B71838C1B0ACB713E
:10BDE000838C0B72DDE70000CC2F0020012807D0E8
:10BDF000022805D0032803D0052801D00120704770
:10BE00000020704710B50D48002444818481C4810E
:10BE100004820B48817E022900D18476094884700F
:10BE200001F0AEFC00F0CEFA03F04AFEFFF768FF27
:10BE30000549012008800548047010BD0422002037
:10BE4000B02D002028220020EA21002047220020D7
:10BE5000F3B581B00198FF240027052815D08A7812
:10BE6000C878120280184A78097812040906511815
:10BE70004618002528460C21484345490246885C5F
:10BE800003280DD005280BD018E08A79C879120252
:10BE900080184A7909791204090651184618E8E70A
:10BEA00050184168B14209D10127FF2105F009FA74
:10BEB00038490888002801D0401E08806D1CEDB26A
:10BEC000542DD7D3012F01D100F0CCFA324F0025E9
:10BED000284604F0B9F900200101CA195168B1429D
:10BEE0001CD12E4900018C78CB7824021B194C7888
:10BEF0000E7824043606A4191B19C01983608B79A7
:10BF0000C8791B02C0184B790C791B0424061B1935
:10BF1000C018D060087A5070284635E0FF2C03D155
:10BF2000491C01D104460095401CC0B2C828D3D397
:10BF30006D1CEDB20F2DCBD3FF2C27D0009804F051
:10BF400083F9200101993954C019144946608B784E
:10BF5000CA781B02D2184B780C781B0424061B19D4
:10BF6000D21882608B79CA791B02D2184B790C796E
:10BF70001B0424061B19D218C260097A41700548B7
:10BF80004188491C4180009804F07AF903B0F0BD63
:10BF9000FC3E002040220020F4420020C02F002060
:10BFA00010B582B06C46A0702271E1702380054C00
:10BFB0006846E1688847002122690846904702B038
:10BFC00010BD00008480020004490020087004496C
:10BFD0000870044948700449488270474D22002087
:10BFE0004C220020282200200422002008B5022133
:10BFF0006A460420117050700548C1686846884739
:10C000000023012204210320FFF7CAFF08BD00001E
:10C01000EC7B020038B51D49088A002804D0401E78
:10C020000004000C088215D0488A0022002807D09E
:10C03000401E80B24882012802D8154842704A82C8
:10C04000C889144C002817D0401E0004000CC88179
:10C0500009D011E0BFF34F8F10490F48C860BFF3FC
:10C060004F8F00BFFDE70E48012182766A461170AE
:10C070005170E16868468847002122690846904768
:10C080000848002102690846904738BD0422002074
:10C0900028220020EC7B02000400FA0500ED00E0FD
:10C0A000B02D002084800200F8B501250F4E6802F3
:10C0B000B0600F49002048700E4C6946608206202F
:10C0C00008700D484D70C1686846884700230122FA
:10C0D00004210220FFF764FF0221084A03201060B8
:10C0E000B160E5704E202071F8BD000000050050E1
:10C0F0002822002004220020EC7B020004070050CC
:10C10000F8B51A4EFF27348841370025BC4200D3CA
:10C1100035808778C4783F02E419477800783F0477
:10C1200000063818241830880C2778438019446298
:10C1300030887843801981625807400FD100084346
:10C140003188794389192031087030880849401CAA
:10C150003080B088401C80B2B080884200D3B58067
:10C16000002003F0DFFC03480570F8BDCC2F002051
:10C17000FFFF00003C220020F0B40D4A00218000A7
:10C180000C4D1668844662465218930000208A00BF
:10C1900092191F18145CEF5D7C401454401CC0B20F
:10C1A0000428F6D3491CC9B20429ECD3F0BC70476B
:10C1B000D4210020042F0020F0B4002585B0194EB2
:10C1C0002A4600950195029503956B462C460495E9
:10C1D000002917D907783F09092F01D8303700E027
:10C1E00037371F7007785B1C3F073F0F092F01D8B7
:10C1F000303700E037371F70641CE4B2401C5B1C12
:10C200008C42E7D36846815C002907D07543C9B2E8
:10C21000521C6D18D2B2815C0029F7D1284605B0B6
:10C22000F0BC7047F100020070B5364B82B0DA788E
:10C230005978002802D0012860D158E0002A5DD04A
:10C24000521E1006000ED87058D12E4D9E78012433
:10C250002D4A6868002E03D04688002E0CD032E0AC
:10C260009C700178D97001796B461970C088019073
:10C2700012696946002038E0083068600FD00688EF
:10C28000002E0CD09C700178D97001796B46197022
:10C29000C088019012696946002090472EE04088CE
:10C2A000002810D1FF2906D000290CD0491E08060D
:10C2B000000E587007D018781449C0004018803814
:10C2C000C06F6860DEE7002098705878FF2806D0BD
:10C2D000002807D0401E0006000E587002D0686883
:10C2E0008078D870126900210120904706E000296B
:10C2F00001D1002A02D0012002B070BD002002B09E
:10C3000070BD0000B0210020247C02008C7B020064
:10C310000148016800200847247C02000F49CA78C0
:10C32000002A02D00A78062A15D000228A70CA7024
:10C330000278002A0DD00122CA7002780A70427871
:10C340004A7000780649C000401880380349C06F21
:10C35000486000207047012070470000B021002095
:10C360008C7B0200F0B4FF2400230C251E466E4394
:10C37000124D77197D688D4208D10C2463430F4C10
:10C38000E05430194160BA60F0BC7047FF2C02D114
:10C390006D1C00D11C465B1CDBB2542BE5D3FF2C7B
:10C3A000F2D00C235C43054B1855E01882604160C5
:10C3B00003490888401C0880F0BC7047FC3E002000
:10C3C0004022002030B50F4C83B021680020884700
:10C3D0000D487F250190ED0068460580012040044E
:10C3E0000290A2686846904708480949406F884211
:10C3F00006D0FF2229460448FEF740FF00F032F83D
:10C4000003B030BDEC7F0200FC3E00207C420020E7
:10C4100078563412F8B500250E4607462C462046BD
:10C420000C2148430D490A5CBA420DD140184168BD
:10C43000B14209D10125FF2104F043FF08490888D2
:10C44000002801D0401E0880641CE4B2542CE6D3BE
:10C45000012D01D100F006F8F8BD0000FC3E0020DF
:10C460004022002010B50D4C84B021680020884780
:10C470000C490B4848670C4801907F20C000694672
:10C4800008800120400402902269002002A9904700
:10C49000E1686846884704B010BD0000EC7F0200E8
:10C4A000785634127C420020FC3E002010B501F08A
:10C4B0006DF910BD70B50B4D0446A86805F030FF4E
:10C4C000FF23610CE003F5330022C01851415A00EC
:10C4D0000023FEF77FFE01460022A86805F0CEFE8D
:10C4E00070BD00006C790200F8B50D46074616468F
:10C4F0000421052000F066F80021012004F074FEFC
:10C5000080210A2003F0DCFE0024002D07D9395DCC
:10C51000092004F069FE641CE4B2AC42F7D30321A5
:10C52000012004F061FEFF24052003F0A1FA641E3F
:10C530002406240E01D04007F6D5222003F098FAF5
:10C540003070212003F094FA7070F8BD10B50B48DC
:10C55000007C400709D40A4C206805F0E1FE012167
:10C560000022C903206805F089FE064800780028EB
:10C5700003D104F00FF9FFF7D7FA10BDB02D00205A
:10C580006C7902000C22002070B50C4D044628681E
:10C5900005F0C6FEFF23610CE003F5330026C0184A
:10C5A00071415A003346FEF715FE01460022286805
:10C5B00005F064FE0248067070BD00006C79020050
:10C5C0008020002070B50C46054603F051FAA043C8
:10C5D0000146284604F008FE70BD0000F0B583B0A7
:10C5E000154C026841680294144C124B2568019561
:10C5F00065680095A568E468AE46A4460024150168
:10C600007544D6187540561166447540491B019D06
:10C610000E017519CE187540009E4F11BE19754058
:10C62000521B029D641C5B1B202CE8DB02604160F6
:10C6300003B0F0BD2037EFC6B979379ED47E020033
:10C64000F0B583B0144C026841680294134C002387
:10C650002568019565680095A568E468AE46A4461E
:10C660001C46029D0E015B19019D4F117519CE18D4
:10C670007540009E641CBE197540AA1815017544CA
:10C68000D61875405611664475406918202CE8DBB1
:10C690000260416003B0F0BDB979379ED47E0200DC
:10C6A00003490968014201D001207047002070470A
:10C6B000A82100200149002008607047A82100201F
:10C6C00002490A6882430A6070470000A8210020DE
:10C6D00002490A6802430A6070470000A82100204E
:10C6E00070B41B491B4A4D78084601244E238078BC
:10C6F0001278052D28D22E007E443679B619B7441B
:10C7000002090F161F001448144A008890420CD1E9
:10C710004C7009E0002A01D0002806D1022002E076
:10C72000002802D1032048708B7070BC7047002A2B
:10C7300001D00028F9D1042048708B7070BC70477C
:10C740000028E5D070BC70470A20487070BC704764
:10C75000472200204A22002084200020FFFF000002
:10C7600010B5144CA078002801D0401E1FE020789E
:10C77000002805D0012804D0032801D1FFF7B0FF1D
:10C7800010BD607800280AD00A2101286170F7D115
:10C7900006F00EFB084900200870207010BD074805
:10C7A000074900888842F9D1012060700F20A070ED
:10C7B00010BD000047220020F72000208420002028
:10C7C000FFFF00000D490878012816D103200C4B0B
:10C7D000002218601B1F18601B1F1860094B18608F
:10C7E000012309481B03C3605B10C3605B10C36077
:10C7F000DB00C3605B00C3600A707047F321002058
:10C80000300700503807005000050050F8B50125EA
:10C810000027AD031B4E0C46002805D001281ED072
:10C82000022820D00120F8BDF560062000F006F9AE
:10C83000B560F560202000F001F920680002000ECC
:10C8400000F0FCF820880004000E00F0F7F82078D3
:10C8500000F0F4F8B56000F009F93846F8BD084674
:10C8600000F06EF8F8BDF560062000F0E7F8B5605E
:10C87000F560C72000F0E2F8B56000F0F7F8384640
:10C88000F8BD00000005005010B5084C20780128C4
:10C890000BD003F07FFF0649032008600121054803
:10C8A0004A0382608A038260217010BDF321002058
:10C8B0003807005000050050F8B54568002D29D014
:10C8C0000488866801271C48BF03C760032000F066
:10C8D000B5F83002000E00F0B1F83004000E00F0A0
:10C8E000ADF8F0B200F0AAF8002C21D08026802C00
:10C8F00012D900222B4611461048009608F084FDFC
:10C90000002801D004F0E8FF803CA4B28035002C60
:10C91000EDD10DE00220F8BDE0B2002200902B46E0
:10C920001146064808F070FD002801D004F0D4FF3D
:10C93000014887600020F8BD00050050008002001B
:10C9400070B501250E4EAD030446F560062000F0DB
:10C9500075F8B560F560D82000F070F82068000226
:10C96000000E00F06BF820880004000E00F066F85E
:10C97000207800F063F8B56000F078F8002070BD12
:10C9800000050050F8B506460120284D80031446E6
:10C990000F46E860062000F051F801208003A860EF
:10C9A000E860022000F04AF83802000E00F046F875
:10C9B0003804000E00F042F8F8B200F03FF8002C06
:10C9C0001DD00027802C00970FD9002380223146EC
:10C9D000174808F019FD002801D004F07DFF803CC5
:10C9E000A4B28036002CEDD109E0E2B2002331463A
:10C9F0000F4808F009FD002801D004F06DFF012761
:10CA0000BE03AE600B4CEE60052000F017F8A520C9
:10CA100000F014F8C00702D0641EF8D203E0002C26
:10CA200001D105480770AE60F8BD00000005005058
:10CA300000800200102700009121002001B582B083
:10CA4000FF206946087101200246009001AB02A94F
:10CA5000054808F0D9FC002801D004F03DFF6846E5
:10CA6000007903B000BD000000800200F8B5012786
:10CA70000B4E0A4CBD03F5600520FFF7DFFFA52034
:10CA8000FFF7DCFFC00702D0641EF8D203E0002CE1
:10CA900001D104480770B560F8BD000050C3000024
:10CAA0000005005091210020F8B54668002E31D0D5
:10CAB00002888568FF20E9B20130401AC4B2100A2A
:10CAC000D7B2002928D000283FD0101B80B2070A17
:10CAD000C0B20090224629463046FFF753FF2D1979
:10CAE0003619781EC4B2002F0FD0FF2701373A46FF
:10CAF00029463046FFF746FF2046641EFF35FF36C5
:10CB000001350136E4B20028F1D1009800282DD07B
:10CB1000024627E00220F8BD002811D0401EC4B212
:10CB2000FF22013229463046FFF72CFF2046641EC3
:10CB3000FF35FF3601350136E4B20028F0D13A4620
:10CB400029463046FFF71EFF10E0A7420AD9381BDE
:10CB5000C7B2224629463046FFF714FF291930197B
:10CB60003A4601E029463046FFF70CFF0020F8BDA9
:10CB70000748C16BC9070AD00021C1630548006995
:10CB8000C00CC007C00F02D103495D200870704778
:10CB90004061004000050050E221002070B50320F4
:10CBA0000F4982B00026086069468E8003F0F2FDCE
:10CBB00001250C4C6D05E560012003F000FC694681
:10CBC000888803F007FC694688800023022201A9B7
:10CBD0000548009608F018FCA560E56002B070BD3D
:10CBE00054070050000500500080020031B582B0AB
:10CBF00003F0D0FD01240C4D6405EC60012003F02E
:10CC0000DEFB6946088903F0E5FB694608810020E0
:10CC100003460090022202A9044808F0F5FBAC602C
:10CC2000EC6003B030BD0000000500500080020041
:10CC3000F8B5554D00266879544C002836D1544833
:10CC40000069A9794000C00F084301D10120A871F3
:10CC5000504F38785A2809D1A88A401C80B2A8823F
:10CC6000642803D3AE823E7003F0BAFDA879002891
:10CC700019D047480069800FC007C00F13D038781B
:10CC80005A2810D0012068710221AE716A46052031
:10CC900011705070E168684688473F48FFF7A6FF6B
:10CCA0003E4802F0D9FF687900282BD004213C4887
:10CCB00003F018FA3A4803F025FAE88A401C80B2DB
:10CCC000E88228280ED03C2829D001465039142962
:10CCD0004BD22F480069400EC007C00F40D0212022
:10CCE00000023FE003F0C8F92E4988420BD12E48DC
:10CCF000FFF77CFF06216A46012011705070E16841
:10CD000068468847F8BD2948FFF770FF02216A4648
:10CD1000032011705070E16868468847F8BD2448C8
:10CD200002F09AFF22481D494079497988420BD97F
:10CD30002048FFF75BFF06216A4601201170507002
:10CD4000E16868468847F8BD1B48FFF74FFF02219E
:10CD50006A46032011705070E16868468847F8BD44
:10CD600081200002FFF742FFF8BD6428FCD3EE8269
:10CD70006E7101216A4611705170E16868468847FA
:10CD80000020FFF733FFF8BD04220020EC7B0200F7
:10CD900000050050D02D0020FFFF00002C220020B5
:10CDA0002422002015EF0000108000001020000059
:10CDB000332200200880000008200000F3B501277E
:10CDC000294E81B07F04B7600021112008F010FEC9
:10CDD000264C3069400CC007C00F03D1641E2404E8
:10CDE000240CF6D1112008F01BFE002C38D0F7607F
:10CDF0000A2003F0E4FA01208004B0600021122030
:10CE000008F0F6FD00250724B7600A2003F0D7FAE2
:10CE10000A2003F0D4FA3069F7604003C00FA04045
:10CE20002843C5B20A2003F0CAFA0A2003F0C7FA61
:10CE30002046641EE4B20028E6D1122008F0F0FD7E
:10CE4000029800280A4809D0B0600A2003F0B7FA17
:10CE5000B76001980570012003B0F0BDF060F4E701
:10CE6000002003B0F0BD0000000500507017000066
:10CE700000000400F1B501262A4D7604EE6077002B
:10CE8000AF600021122008F0B3FD274C2869800C08
:10CE9000C007C00F03D1641E2404240CF6D1122055
:10CEA00008F0BEFD002C35D007240120EE6000996B
:10CEB000A040084201D1EF6000E0AF600A2003F01B
:10CEC0007EFAAE600A2003F07AFA2046641EE4B2CD
:10CED0000028EAD1EE60AF600021122008F088FD42
:10CEE0000A2003F06CFAAE600A240A2003F067FA05
:10CEF0002869800CC007C00F03D0641E2404240CD2
:10CF0000F3D12869800CC007C00F05D0122008F0AB
:10CF100087FDEF600020F8BD122008F081FDEF6072
:10CF20000120F8BD000500507017000010B5112059
:10CF300008F076FD122008F073FD00F043F810BDF4
:10CF4000F8B501201D4D4004E8600A2003F037FACF
:10CF50000127BF04AF600021122008F049FD184EE0
:10CF600034462869800CC007C00F03D1641E240416
:10CF7000240CF6D1122008F053FDAF60002C1BD01A
:10CF800001246404AC600021112008F031FD2869FF
:10CF9000400CC007C00F03D1761E3604360CF6D104
:10CFA000112008F03DFDAC60002E05D0EF600A2096
:10CFB00003F005FA0120F8BD0020F8BD000500507F
:10CFC00070170000F8B501271E4E7F04F7600A2095
:10CFD00003F0F5F97800F0600A2003F0F0F9B7608B
:10CFE0000021112008F004FD174C25463069400C43
:10CFF000C007C00F03D16D1E2D042D0CF6D11120DA
:10D0000008F00EFDB760002D19D001208004B0603B
:10D010000A2003F0D4F90021122008F0E9FC30695D
:10D02000800CC007C00F03D1641E2404240CF6D169
:10D03000122008F0F5FC002C01D00120F8BD0020E2
:10D04000F8BD0000000500507017000008B5002270
:10D0500013490C200860134800691349400EC007AB
:10D06000C00F1BD08878401CC0B28870022814D32F
:10D07000C879002811D18A700120C87102216A463E
:10D080000520117050700948C16868468847002320
:10D09000012204210220FEF783FF08BDCA7108BDEA
:10D0A000640700500005005004220020EC7B0200C1
:10D0B000F0B500208446614899B000680190604650
:10D0C000850001980095435D2D181795AE466A7846
:10D0D000A978E878DC091B265D0074436540EEB250
:10D0E00013967500F40914961B2674436540EEB23E
:10D0F00011967500F40912961B2674436540EFB231
:10D10000C409450074436540EEB20B970F96109624
:10D11000CC091B264D0074436540EEB20896099673
:10D120000A96D4091B26550074436540EDB20C974E
:10D13000EE091B276C007E437440E4B218950D94F1
:10D1400066000E94E4097C436640F6B206960796A4
:10D15000129E149C0C9F7440079E55407C40754065
:10D16000099E6C407500F6091B277E437540EEB2A0
:10D17000149675001596F6097E437540159EEDB21E
:10D180004E406E407440109E049505957500F6095A
:10D190007E437540EEB2159675001696F6097E43ED
:10D1A0007540EDB20295039545406C40019E009D8F
:10D1B0007455189D0E9C079E0C9F654075405F40FE
:10D1C0006F400A9E059D4E406E407740169E039D1F
:10D1D00046406E40774075466F70119C0B9D069ED1
:10D1E0005C406C4056407440089E149D6E40049D07
:10D1F0006E4074400F9E4640029846401798744017
:10D200008470139858400B9B58400D9B5340069ACE
:10D210005340049A58404A405040159A0F99514043
:10D22000029A514048401799C8706046401C844695
:10D23000042800DA43E719B0F0BD0000D421002033
:10D240000D480068417B427A4273427942724278CB
:10D25000427141708178827A827081728179827B99
:10D2600082718173C178C279C270C27AC271C27B85
:10D27000C272C17370470000D4210020F8B536494E
:10D28000364E4B68002081005A5C7254CA188919C6
:10D2900054784C7094788C70D278401CCA700428F2
:10D2A000F1D32C2856D281002C4A00918A181146BD
:10D2B00020390B7F2D0A2D021D439C46FF234C7FF6
:10D2C0001B029D43FF262302360233401D438B7F02
:10D2D0003602B543FF271E043F043E403543CE7F50
:10D2E0002D022D0A37063D4387071DD11C4FB64638
:10D2F0003E5DFB5CFF2424021B02A54323401D432B
:10D300007346FB5C24021B04A54323401D43634674
:10D31000FC5C2B021B0A24062343124C8508645D27
:10D320001D0A66402D0235430B7C0C4C009E6B4061
:10D33000A3554B7C2C04240E634053708B7C2C0231
:10D34000240E63409370C97C2B0E5940401CD17051
:10D350002C28A8D3F8BD0000D4210020042F0020E1
:10D36000C87C0200C87E0200064903200860091D2F
:10D3700008600121044849048160490081608900F6
:10D38000816070474407005000050050002801D01C
:10D390000220704710B500F003F8002010BD000017
:10D3A0003E490878002802D0401E08707047F8B542
:10D3B0003B4DA878002801D0401EA87003F094FED1
:10D3C000002806D137490969890FC907C90F00D15B
:10D3D0000D202978012600290AD00322324B334F31
:10D3E0000024012909D0022930D0032952D149E073
:10D3F000002801D02E70A880F8BDA988814200D0F5
:10D400002C702B484078052803D3FEF7EFFD2C70D5
:10D41000F8BD1F20A87002202870C8B20C28F7D0D1
:10D420000D28F5D02A7088001858FF28F0D0FFF793
:10D430004FF9A8880D28EBD04000C0194038C38FA1
:10D44000022211460420FEF7ABFDF8BDA9780029A1
:10D450000BD1A988814208D1880016492A70085842
:10D46000FF28F2D0FFF734F9F8BD0028FCD12C706A
:10D47000A888800018586E70FFF72AF9A8880D2830
:10D48000DAD1F8BDA988814202D1AB78002B03D054
:10D490008842F6D02C70F8BDAA70F8BD0422002096
:10D4A000DC21002000050050F47E0200787F02009D
:10D4B000282200202C7F020010B503490C200860B0
:10D4C00003F07CFA10BD000078070050002907D057
:10D4D00004494A7802708A88428000204870704768
:10D4E00001207047DC2100200748417E01290AD92C
:10D4F00010B506498183064800780003014388B2CD
:10D50000FFF774FB10BD7047784F0020FFFF00004D
:10D510004622002010B50A48084A0078517E0003D0
:10D52000022903D3918B014388B204E0002904D07F
:10D530000021918380B2FFF759FB10BD784F002086
:10D540004622002010B50649888BC04388830549D0
:10D5500009780903084380B2FFF748FB10BD0000BB
:10D56000784F00204622002010B50020FFF73EFB38
:10D5700010BD000010B50248FFF738FB10BD0000D9
:10D58000F104000010B5064904480978808B0903AE
:10D59000084380B2FFF72AFB10BD0000784F00203F
:10D5A0004622002010B50020FFF720FB10BD10B56B
:10D5B000FF202030FFF71AFB10BD000010B5064910
:10D5C00004480978808B0903084380B2FFF70EFBFB
:10D5D00010BD0000784F002046220020F8B52C4EE8
:10D5E000002802D0012850D13FE0002506202F4618
:10D5F0004743BC19E078002823D0401E0006000EE7
:10D60000E0701ED1607800281BD0A07800281DD0C3
:10D610000020A0700C20294641431E48081840688D
:10D6200080476078FF2804D0401E0006000E60701E
:10D6300007D0F05D41004118174808182038C07F16
:10D64000E0706D1CEDB2052DD0D31EE00120A0705E
:10D650000C201049684308588047F05D410041188C
:10D660000D4808182038807FEAE700200621414352
:10D670008919CA78002A02D14978002901D00120ED
:10D68000F8BD401CC0B20528F0D30020F8BD000052
:10D69000784F0020488002003080020010B5002042
:10D6A000FFF7A4FA10BD000010B50248FFF79EFA7C
:10D6B00010BD0000542B000010B50649044809783D
:10D6C000808B0903084380B2FFF790FA10BD000079
:10D6D000784F00204622002010B50020FFF786FA80
:10D6E00010BD10B543204002FFF780FA10BD0000C6
:10D6F00010B5064904480978808B0903084380B2B5
:10D70000FFF774FA10BD0000784F00204622002079
:10D7100010B5FFF743FA1E210148FDF7B6FD10BD15
:10D72000784F002070B504461348002505701E216F
:10D730001248FDF7AAFDA07805281AD20621484311
:10D740000E49228840188280A0780623E278584348
:10D750000A54A0782279584340184270A0780122D8
:10D7600058434018C270A078584340188570002074
:10D7700070BD012070BD000046220020784F0020BF
:10D780000149002088707047F02C00201D48007C63
:10D79000400635D4F0B51C4D85B0A87F002826D0B2
:10D7A000C01E00240011194F002811DD2001C619E8
:10D7B000F01D6946FDF70EFEF01D10226946FDF7CB
:10D7C0004BFDA87F641CC01EE4B20011A042EDDC3A
:10D7D0000F496D200880AA7F391D082001F02CFD1B
:10D7E0000020A8773220FEF765FE05B0F0BD00F0FE
:10D7F00033F80128F9D13220FEF75CFE05B0F0BD08
:10D8000070470000B02D0020502D0020F02C00208B
:10D81000F420002070B50C460A4601460B48064627
:10D82000FDF71AFD0A4D01206C70A870142C00D968
:10D83000142422463146074805F048FA2C706878CF
:10D84000A04202D800202870687070BD312D0020E1
:10D85000F02C0020D825002010B5104C60782178DD
:10D86000401A0206120E16D02146084609784130A9
:10D870000918142A06D80A4805F028FA0020607012
:10D88000207010BD1422064805F020FA20781430CC
:10D890002070012010BD002010BD0000F02C0020E1
:10D8A000D825002070B515460A4684B004461E46A9
:10D8B0006946104602F04CFD304601A902F048FDD1
:10D8C000284602A902F044FDFF20694608730122A0
:10D8D000204600F005FE04B070BD0000F3B585B031
:10D8E0000598052817D08A78C878120280184A78D7
:10D8F000097812040906511840180390434E444D0C
:10D90000002420460C21434A4843115C03290ED0D1
:10D9100005290CD027E08A79C879120280184A7943
:10D92000097912040906511840180390E6E7801897
:10D930004268531C0ED083683768BB420AD2FF216D
:10D9400003F0BFFC2888002801D0401E2880FEF785
:10D9500089FD08E00598814205D10398824202D1F1
:10D96000052007B0F0BD641CE4B2542CC9D368880C
:10D97000002802D1A888002844D00027264C002087
:10D9800021688847254D2648694601950880390356
:10D99000000708180290A1686846884700241F49BC
:10D9A00020010B5C059A934224D1451869680398BD
:10D9B00081421FD11B4800268079072800D00646E7
:10D9C000E968A868FEF774F800281BD1687801069A
:10D9D00002D5002007B0F0BD0121B140084209D0B6
:10D9E0000E4821010818C168A868FEF77FF80028D2
:10D9F000F0D007E0641CE4B2C82CD0D37F1CFFB287
:10DA00000F2FBBD3012007B0F0BD0000C0210020C4
:10DA100040220020FC3E0020EC7F0200F442002067
:10DA2000840C0000C8210020F0B50C460B4687B0DE
:10DA30000546014604AA002000F052F80106090E2E
:10DA400036D1234604AA2946012000F049F80706EA
:10DA50003F0E14D01F4839010818014680398A6FDB
:10DA60000192C96F20380091067C447C012005900A
:10DA70001046FEF71DF80546052803D006E00120F4
:10DA800007B0F0BD3946059800F09EF9200612D483
:10DA9000114900208979072900D0084601218140D9
:10DAA000214205D000990198FEF720F8002802D005
:10DAB000052007B0F0BD02A9049802F049FC074810
:10DAC00001230168324602A8FEF71AFB284607B078
:10DAD000F0BD0000F4420020C8210020C021002039
:10DAE000FFB589B00998AE491E46002802D001282A
:10DAF00003D052E10878039001E088780390002871
:10DB00007DD00024082E24D3F00713D00A98710882
:10DB100008182038837FC27F1B02D218437F007F02
:10DB20001B040006181810180A9A0001515C0C0911
:10DB300004432BE00A98710808182038827FC17FBF
:10DB400012028918427F007F1204000610180C1878
:10DB50001CE0F0070ED000207208511C08D0521CA7
:10DB60000A9B21021C5C401C0C43C0B28242F7D8C5
:10DB700024090BE00020710808D072080A9B2102DA
:10DB80001C5C401C0C43C0B28242F7D8761E03983E
:10DB9000F6B20028B5D90998002802D001286CD027
:10DBA000F8E02001000902902002000A01900025FF
:10DBB0002003000BA7B200900C217A4A6943505C05
:10DBC000022809D0172807D0192805D0152803D016
:10DBD000162801D018284BD1881841684A1C47D014
:10DBE000714A8368126893420DD2FF2103F069FBEA
:10DBF0006B490888002801D0401E088000E00AE038
:10DC0000FEF730FC34E0080F0F2806D08C422FD1ED
:10DC10000B980160681C0DB0F0BD080EFF2807D0FE
:10DC20000A0102981209904222D10F2000070AE04F
:10DC30005E480A0D824208D00A020198120A9042F8
:10DC400016D1FF2000060143E2E759480A0C824240
:10DC500007D00A030098120B904209D1554801439E
:10DC6000D6E78AB2974203D10B9889B2016057E098
:10DC70006D1CEDB2542D9FD38CE02001000907905C
:10DC80002002000A069000272003000B0590A0B296
:10DC90000490494D00202968884748480190484829
:10DCA000694608803903000708180290A968684689
:10DCB00088470025414A2901505C022807D01728CF
:10DCC00005D0192803D0152801D0162859D13D4870
:10DCD00007708818019040680090384602F0B4FA46
:10DCE00001983149C26809688A420ED2FF22102188
:10DCF000FDF7C4FA2A494888002801D0401E488010
:10DD00003048007802F0BCFA3BE00098401C38D064
:10DD10000098010F0F2906D0844232D10B99086078
:10DD2000681C0DB0F0BD010EFF2907D00201079954
:10DD30001209914225D10F2109070AE01B49020D62
:10DD40008A4208D002020699120A914219D1FF2193
:10DD500009060843E2E71649020C8A4209D0020389
:10DD60000599120B91420CD1124908430B99086096
:10DD7000D6E7049982B2914203D181B20B98016037
:10DD8000CEE76D1CEDB2C82D94D37F1CFFB20F2FD0
:10DD900000D27EE7042E00D3B3E600200DB0F0BD24
:10DDA00040220020FC3E0020C0210020FF0F000088
:10DDB000FFFF00000000F0FFEC7F0200F4420020B3
:10DDC000840C00003E22002000293AD0F8B5491EFC
:10DDD000CCB2012834D11B48007802F035FA1A4F32
:10DDE0002301DC19A168194E8A01880E150F8902DA
:10DDF000CA0E3178814214D17078A84211D1B57819
:10DE000095420ED10007890680090818E906890A9B
:10DE100040180F494218F85C6168FEF7A3FAFEF754
:10DE200021FBFF2210212046FDF728FA09494888E6
:10DE3000002801D0401E48800248007802F020FAF5
:10DE4000F8BD70473E220020F4420020C821002087
:10DE5000FB7E010040220020F3B58278C1781202D7
:10DE60008A18417800780904000608181518364801
:10DE700083B04088002848D0344F354E002439689C
:10DE8000002088473348694601960880210300072F
:10DE900008180290B968684688470020010189196E
:10DEA0004968A94233D1030129482B4F1D18A8689E
:10DEB0008101860E0A0F8002C10E3878B04215D15A
:10DEC0007E78964212D1BA788A420FD13107800605
:10DED00089094018D106890A411820480A181C48A7
:10DEE0006968C05CFEF73EFAFEF7BCFAFF2210211B
:10DEF0002846FDF7C3F914494888002801D0401E80
:10DF00004880204602F0BCF9002005B0F0BD401C5E
:10DF1000C0B2C828C2D3641CE4B20F2CAFD30E48E1
:10DF2000427801788078120789069209C00689181C
:10DF3000800A091809480A1829460498FEF712FAB7
:10DF4000FEF790FAE0E7000040220020EC7F02009C
:10DF5000F4420020840C0000C8210020FB7E010058
:10DF6000F0B585B000252A4C002021688847294E4D
:10DF7000294869460196088029030007081802907D
:10DF8000A168684688470024224A200186187168E3
:10DF90008C46491C2CD0105C192805D0162803D0BB
:10DFA000152801D017281ED10395B1681B4F8A018F
:10DFB0008B0E89023F78120FC90E9F4213D1174B67
:10DFC0005B7893420FD1154A92788A420BD11B0796
:10DFD000B9069B09D206C918920A8A181049521824
:10DFE0006146FEF7BFF9FF2210213046FDF746F9E2
:10DFF000641CE4B2C82CC7D36D1CEDB20F2DB2D394
:10E00000FEF730FA039802F03BF9002005B0F0BDAE
:10E01000EC7F0200F4420020840C0000C8210020A4
:10E02000FB7E0100F0B5264F85B00025254C002071
:10E0300021688847244E25486946019608802903AF
:10E04000000708180290A1686846884700241E4A05
:10E050002001115C8C46172922D186180395B168DE
:10E060008A01880E130F8902CA0E3978814212D1B3
:10E07000787898420FD1BB7893420CD1000789067B
:10E0800080090818D906890A411811480A186046FB
:10E090007168FEF767F9FF2210213046FDF7EEF8B0
:10E0A000641CE4B2C82CD2D36D1CEDB20F2DBDD3CD
:10E0B000FEF7D8F9039802F0E3F8002005B0F0BDB0
:10E0C000C8210020EC7F0200F4420020840C0000F4
:10E0D000FB7E01008278C1781202891842780378A9
:10E0E00012041B06D21889180F4A11600F49027BCF
:10E0F0000A70427B4A70827B8A70C27BCA70027A45
:10E100000A71427A4A71827A8A71C27ACA71007C33
:10E110000872074802218176FF200649D530088021
:10E12000054908800020704720220020C02F0020D1
:10E13000B02D002012220020F420002070B51646D9
:10E140000C460546012901D0022C08D10C460C349E
:10E15000E4B2002D02D0451EEDB200E00425601CA3
:10E16000410040180521FDF70BF86100891940189E
:10E170004019A90840180721FDF702F8481C70BD96
:10E1800070B5064692B0002480211220FEF71AFADC
:10E1900080211320FEF716FA00210E2003F024F848
:10E1A00000210D2003F020F89320694608722020FA
:10E1B0004872FA21124802AB0191009002221946DE
:10E1C0000C2000F04BF8054600210D2003F00CF860
:10E1D00080210E2003F008F8002D0DD1002102A8A7
:10E1E000425C7254425C491C5440C9B20429F7D3C2
:10E1F000405CA04200D0FE25284612B070BD000051
:10E20000F821002030B589B06C4620726172002080
:10E2100002A9145C0D18401CC0B2AC700628F8D3DB
:10E2200000201A5C0C18401CC0B222720628F8D3D9
:10E230007D21C90007A802AB019100900C2219466C
:10E240000E2000F00BF8040004D1082001F010FCAF
:10E25000000700D4FE24204609B030BDFFB50020E1
:10E2600081B0054606460090019817460C2804D058
:10E270000E2804D11225102601E0772530262946E4
:10E2800080200143022002F0AFFF80210420FEF72E
:10E2900099F90021012002F0A7FF80210A2002F055
:10E2A0000FF80024002F08D90298015D092002F020
:10E2B0009BFF641CA4B2BC42F6D3029800210170FB
:10E2C00041708170C1700120019902F08DFF0198A9
:10E2D0000C2803D180210D2001F0F2FF0B9884B2AD
:10E2E000042001F0C5FB641E24040746240C03D05F
:10E2F000F80701D13742F3D080210D20FEF762F9F3
:10E30000002C12D0062001F0B3FB1B2108420AD1D9
:10E3100000202F400090F80701D0FF2000900198C6
:10E320000C280DD001E0FE20009080210C2001F08F
:10E33000C7FF0021012002F057FF009805B0F0BD93
:10E340000A2001F095FB04460C2001F091FB4007E8
:10E35000400F03D0E1000839081800E0E0000A99F6
:10E36000002C086010D0122C00D912240025002C9B
:10E37000DBD9092001F07CFB0146049841556D1C56
:10E38000ADB2A542F5D3D0E70124EFE730B589B0AF
:10E390000D4630216A461172507202AC02212046AD
:10E3A0000A32FEF7A1F87D21C90007A802AB01914E
:10E3B0000090042219460C20FFF750FF002802D1DC
:10E3C0000799902902D0FE2009B030BD0023E15CFE
:10E3D000E9545B1CDBB2102BF9D309B030BDF0B5AA
:10E3E000064689B00D46082001F042FBF7210140A6
:10E3F000082002F0F9FE80210E2002F0F5FE12271F
:10E400008024384601F034FBA0430146384602F030
:10E41000EBFE1327384601F02BFBA043014638469C
:10E4200002F0E2FE07210D2002F0DEFE1427032495
:10E43000384601F01DFB204320430146384602F0D8
:10E44000D3FE68460672142107A802AB0191009022
:10E45000012219460C20FFF701FF002802D107997D
:10E46000102902D0FE2009B0F0BD6946097A297052
:10E470006946497A697009B0F0BD10B588B093213A
:10E480006A461172702151720021917302AA435C95
:10E490005418A3706C46A37B445C491C63406C46D3
:10E4A000C9B2A3730429F2D3072102A8D21DFEF733
:10E4B0001BF808210846FEF785F87D21C90007A84A
:10E4C00002AB01910090092219460C20FFF7C6FE0D
:10E4D000002802D10799182900D0FE2008B010BDED
:10E4E000F7B582B0012001900C46C8788978FF25E5
:10E4F00009024118607802042078000610180F18ED
:10E5000039460298FDF786FF0026304601F09CFE52
:10E51000514B00200101CA185168B94220D1A3799A
:10E52000E1791B02C918637925791B042D065B1953
:10E53000C918030148481818C160A17AE07A090295
:10E540004118607A237A00041B06C01808189060EE
:10E55000207B5070304601F093FE002005B0F0BDE6
:10E56000FF2D03D1491C01D105460096401CC0B2C5
:10E57000C828CFD3761CF6B20F2EC6D3FF2D2AD0D3
:10E58000009801F061FE344A280102991154801864
:10E590004760A279E179120289186279237912041D
:10E5A0001B06D2188918C160A27AE17A1202891872
:10E5B000627A237A12041B06D21889188160217BA3
:10E5C000417026494888401C4880009801F058FE58
:10E5D000002005B0F0BD00251E46284601F034FE9F
:10E5E00000200201B15C152903D0172901D0192997
:10E5F00026D191194968491C22D000010299315451
:10E6000090194760A279E179120289186279237919
:10E6100012041B06D2188918C160A27AE17A12028C
:10E620008918627A237A12041B06D218891881602D
:10E63000217B4170284601F023FE002005B0F0BD8B
:10E64000401CC0B2C828CCD36D1CEDB20F2DC4D372
:10E65000019805B0F0BD0000F442002040220020E7
:10E6600070B505460220087000200872CC1D68793C
:10E67000FDF7BCFB01460120012904D01249134AD1
:10E680004988914201D9607070BD6879022804D030
:10E69000032809D0052807D00AE0294601220A31BB
:10E6A0000220FFF71DFF02E0A81DFFF713FD6070B9
:10E6B0006078002804D002210320FCF7F7FE70BD2B
:10E6C00001210846F9E7000040220020DC05000097
:10E6D000F0B583B00446002500F058FCA178E0783E
:10E6E0000902401861782278090412068918401836
:10E6F000411C40D000283ED02049CA69824225D220
:10E70000C86181010C0F820E6F463A7081027C70E5
:10E71000C90EB970C103CB0E01058E0E8106FB70C8
:10E72000890E3E717971122A25D30C2C23D8182B0F
:10E7300021D83C2E1FD83C291DD81149097812290F
:10E7400007D23946002001F011FA14E0052003B089
:10E75000F0BD0C498968884201D9401A00E0081AC6
:10E7600001214902884206D93946002001F0FEF90C
:10E77000284603B0F0BD284603B0F0BDCC2F0020E2
:10E78000C8210020B821002070B5084643780D4C00
:10E7900015460021CA00A25C9A420CD1CE00311964
:10E7A000801D0A1D0BD04A682946401C9047A05D79
:10E7B0006870002070BD491CC9B21129EAD301203C
:10E7C00070BD0000407C020070B5084643780D4CD7
:10E7D00015460021CA00A25C9A420CD1CE00311924
:10E7E000801D0A1D0BD04A682946401C9047A05D39
:10E7F0006870012070BD491C0906090EEAD002208C
:10E8000070BD0000387C020010B502240C7000229C
:10E810000A72427901232549012A06D0022A16D01C
:10E82000032A1ED0042A25D031E08279012A03D0A0
:10E83000087CF722104012E00A7C082422430A7464
:10E84000027AC4791002204340BA88801FE08079A0
:10E850000128087C01D0EF2208E010221043087440
:10E8600015E080790128087C02D0FB221040F6E7F1
:10E87000042216E080790128087C11D0DF221040A4
:10E8800008740B4801780B4800290CD003700A4823
:10E8900001210370094803700320FCF707FE10BD37
:10E8A00020221043DBE70470F1E70000B02D0020C8
:10E8B0004E2200204C220020922100209121002095
:10E8C00010B502220A70CC1D4179801DFFF7C4FAF1
:10E8D0006070002804D002210320FCF7E7FD10BD82
:10E8E00001210846F9E700000149887070470000DF
:10E8F000B821002070B502220A7000230B72407903
:10E900000124104A104DC91D012806D002280BD041
:10E91000032810D00A20487070BD14702B7001219C
:10E920000320FCF7C3FD70BD01F098FE01F058FF15
:10E930000648047070BD032010702B700121FCF795
:10E94000B5FD70BD47220020482200209121002003
:10E9500010B508200870CC1D00F018FB0020607076
:10E9600008480178A1704178E17081782171C178FF
:10E9700061710179A1714079E07101210846FCF7CC
:10E9800095FD10BDC821002030B50A4C054683B066
:10E99000206CFCF758FC6946284601F0D9FC01A917
:10E9A000206C01F0D5FC08216846FDF705FC03B09A
:10E9B00030BD0000702D002030B589B012480290A3
:10E9C0001248019012480490124803901248009097
:10E9D000684600F05BFD114CE56B206CFCF733FCE6
:10E9E00006A9284601F0B4FC07A9206C01F0B0FC90
:10E9F000082106A8FDF7E0FB0949C860002008715E
:10EA00000849088009B030BD89E70100C9E7010065
:10EA100025EC0100E9E8010079EC0100702D0020EF
:10EA2000B8210020A4210020F8B515220A70002684
:10EA3000CC1D0E728179427908022A4D1043AA88B2
:10EA400040BA002A40D0698891423DD2FF27413721
:10EA5000B94200D36E80002812D069884A1C8242D5
:10EA60000ED10C2200205143C043491948626888E6
:10EA7000401C80B26880B84224D2002001F052F8D5
:10EA800068880C2141434919496A491C10D000206B
:10EA900001F048F86E88A11D3046FDF763F9300A91
:10EAA000A070E670A888000A207128796071F8BD0E
:10EAB0002988884201D3884206D9401C80B26880E8
:10EAC000B842DAD36E80D8E7A670E6702671667118
:10EAD000FF220E21A01DFCF7D1FB03490120087085
:10EAE000F8BD0000CC2F00203C22002070B582B081
:10EAF000C11C04466E460D46304602F0CAFB68460D
:10EB0000FDF76CFD2846314602F0C3FB00221C20B5
:10EB100011466318491C9B78401E5A400006C9B232
:10EB2000000EF6D1A07F90420AD1E078702807D17C
:10EB3000A01D01F01AFC01461048026C914205D05C
:10EB400001210320FCF7B2FC02B070BD617922798B
:10EB50000902114349BA8184214610220E31084826
:10EB6000FCF77AFB01F03CFE01210620FCF79EFC3D
:10EB700004490120087002B070BD0000702D002013
:10EB8000962D00209121002010B502220A70C37931
:10EB9000027A1B02D218837940791B0400061818E8
:10EBA0001018054AD0630020087201F019FE0121F7
:10EBB0000320FCF77BFC10BD702D002010B5032056
:10EBC000087000200872034800784872FDF7FCF9CD
:10EBD00010BD00003A22002070B503220A70CC1D3F
:10EBE000401DFFF775FD05000ED000230122042112
:10EBF0000320FDF7D5F904210320FCF757FC074853
:10EC000065700078A07070BD05484179002902D078
:10EC100000214171F3E7FDF747FAF0E73A220020BF
:10EC2000B8210020012204290DD079290BD07E299A
:10EC300009D0072907D0162905D0712903D0272923
:10EC400001D028290BD1094B04291A7009D0792940
:10EC500007D07E2905D0162903D0712901D06D294E
:10EC600001D103490A700349C870704792210020FE
:10EC700091210020B82100200120704710B5042206
:10EC80000A7000220A7243794B728A724279012318
:10EC90001448C91D012A06D0022A12D0032A14D012
:10ECA000042A16D019E0027C120716D5CB70828890
:10ECB000120A0A7100794871C91F0878801C08700F
:10ECC0000BE0007CC00607D407E0007C400703D4BB
:10ECD00003E0007C800600D5CB7001210320FCF707
:10ECE000E5FB10BDB02D002010B5182008700020E5
:10ECF000087201210846FCF7D9FB10BD0B200870F3
:10ED000000200872487201208872C87208731220AD
:10ED100048730A2088730420C873742008747047ED
:10ED20000020087070470000F8B50546052828D077
:10ED30008A78C878120280184A780978120409067D
:10ED40005118461800F022F9701C6ED0002E6CD0BD
:10ED50000027384601F078FA4949002420010A5C6E
:10ED6000AA4250D142185268B2424CD1152D13D04C
:10ED7000162D11D0172D0FD0182D0DD0192D0BD009
:10ED80002FE08A79C879120280184A790979120429
:10ED9000090651184618D5E7394922015618B168B5
:10EDA0008A0E8B018902CD0E36491B0F09789142DC
:10EDB00017D1344A52789A4213D1324B9B78AB42E6
:10EDC0000FD11207890692098918DA06920A8A1861
:10EDD0002D492B4B5218185C7168FDF7C3FAFDF7EB
:10EDE00041FB274821010818FF221021FCF746FAB1
:10EDF00026494888002801D0401E4880384601F046
:10EE00003FFA0020F8BD641CE4B2C82CA6D37F1CD6
:10EE1000FFB20F2F9DD3152D08D0162D06D0182D1B
:10EE200004D0192D02D0172D14D027E015484278B0
:10EE300001788078120789069209C0068918800A2D
:10EE4000091811480A1831462846FDF78BFAFDF7D4
:10EE500009FB13E00B484278017880781207401CC8
:10EE600089069209C0068918800A091806480A18F6
:10EE700031462846FDF776FAFDF7F4FA0020F8BD92
:10EE8000F4420020C8210020FB7E01004022002027
:10EE900070B504220A70041DCD1D4079A11CFFF736
:10EEA00043FF6870A17AA970E17AE970002803D164
:10EEB00001210846FCF7FAFA70BD000070B504465F
:10EEC00004200870CD1D142221461248FCF7C4F915
:10EED0006079241D15281CD016281AD0172818D0A0
:10EEE000182816D0192814D0A278E11CFFF7F8FAD8
:10EEF0006870A178C9000919C978A970A178C900FA
:10EF000009190979E970002803D101210846FCF7A5
:10EF1000CDFA70BD282E002010B502200870002008
:10EF2000087201F059FB01F05BFC03210846FCF775
:10EF3000BDFA10BD30B583B002220A70CC1D4179F4
:10EF40006A46117081795170C1799170017AD170DE
:10EF5000417A1171807A507106480025C561694671
:10EF6000284600F003FE012165700846FCF79EFA72
:10EF700003B030BDCC2F002002220A7000220A729A
:10EF80004179014801767047B02D002030B583B03B
:10EF9000684600F061FE002839D168460078632891
:10EFA00035D8684640780C2831D8684680781F28C4
:10EFB0002DD86846C078172829D8684600793C289B
:10EFC00025D8684640793C2821D8124C694620460D
:10EFD00002F070F9617820780B0782069B09D3183C
:10EFE000A278D506AD0A5B19E578ED06ED0B5B1945
:10EFF0002579AD062D0D5B196579AD06AD0E5B1952
:10F00000054DAB60054DAB60FFF798F8A07103B0FC
:10F0100030BD0000C8210020B8210020CC2F0020E6
:10F02000F0B50546087885B00C46002827D04E4933
:10F030004E4801F089F94E4F4B4EB88C311D01F00E
:10F0400083F9B11D386C01F083F92078494EC01D59
:10F05000C0B22070082D14D00A2D3DD00E2D64D0E2
:10F060000B2D62D0204601F08BF92178885520784D
:10F07000C01CC6B232463C49284600F015FA05B01D
:10F08000F0BD010703D000090001103020702046B8
:10F0900001F076F921783C22885520783249C01C4D
:10F0A000C6B23548FCF7D8F8F01E001100240490D1
:10F0B0000028DFDD2C4821010F18F81C6946FCF7F9
:10F0C000DBF9F81C10226946FCF7C6F8641C0498AA
:10F0D000E4B2A042EEDCCDE7410703D0C008C00097
:10F0E00008302070204601F04BF9217888552078AF
:10F0F0000024C01CC6B2F01EC01004900028B9DD68
:10F10000194821010918C91C0F46684602F0C1F8C8
:10F110006846FDF795FA3846694602F0BAF8641C6D
:10F120000498E4B2A042EBDCA4E7410703D0C00896
:10F13000C00008302070204601F022F9217888555F
:10F1400020780024C01CC6B2F01EC710002F91DD2D
:10F150000548E1000818C01CFDF772FA641CE4B20F
:10F16000A742F5DC86E70000502E0020AA550000DB
:10F17000702D0020522E00208C2E0020F8B508782B
:10F180000027294D16460C46AA2802D1607855283A
:10F1900027D0254A2548127869788018FF2939D068
:10F1A0008A421DD232462146FCF756F8287880194B
:10F1B000C0B228706978884212D31D48817F002927
:10F1C0000ED16A78827719491A48FCF745F83C2134
:10F1D0001648FCF75AF86F702F700A20FDF76AF98D
:10F1E000F8BD3C211148FCF750F8A178F0B2FF2996
:10F1F0000CD0C91C69702870324621460B48FCF7B8
:10F200002BF8287869788842D7D2F8BDFF21697039
:10F210002870F1E732462146FCF71EF80348FFF755
:10F2200065FC6F702F70F8BDCF210020C82E002024
:10F23000502D0020F42C0020F7B58B4D0C46E968CA
:10F2400084B0064688472D68884B21463046069A8A
:10F25000A84700284FD0204601F082F88449884210
:10F2600049D1A71C0E2E0BD00A2E09D00B2E07D089
:10F27000A078C55DA01C01F083F8A8423BD117E03F
:10F2800006980025C01EC0100090002809DDE80087
:10F290000019C01CFDF7A2F96D1C0098EDB2A84240
:10F2A000F5DCA078C55DA01C01F06AF8A84222D167
:10F2B0006D486E4F4368BA1CA11C30469847002821
:10F2C00019D0012875D0E5781B2D16D01C2D14D02F
:10F2D000A01D01F04AF801466648006C81420CD03E
:10F2E000A01D01F042F8401C07D0012D03D0402D95
:10F2F00001D02C2D11D107B0F0BD5E485E49C26B24
:10F3000020460A3002908A423AD1A01D01F02DF821
:10F3100001465848006C814212D00320B870FD703D
:10F32000B872B91C3046FFF77BFE05210120FCF7BF
:10F33000BDF80023012204210320FCF731FE8CE0FC
:10F340004E4901200870029801F00FF801464A4822
:10F3500081424FD0029801F008F84649C86301F095
:10F360003FFA0020FCF792FCFCF7AEFC444801F0A9
:10F3700068FF4048C06BFFF707FB4249086039E06F
:10F380001B2D01D01C2D39D1A11D684601F081FF34
:10F390006846FDF723F9684600F0E7FF0146394863
:10F3A000006881423348006C04D0A11D00F0D0FFFA
:10F3B00033E04EE0A11D00F0CBFFFFF7E7FD01A811
:10F3C00000F0D3FF30490968884213D20320B87097
:10F3D000FD700520B872B91C3046FFF721FE0421EC
:10F3E0000120FCF763F80023012204210320FCF72D
:10F3F000D7FD32E01B2D24D01C2D22D0029800F026
:10F40000B4FF01461B48C06B81421AD0012D00D1C8
:10F4100071E7402DFCD02C2DFAD00320B870FD7080
:10F420000420B872B91C3046FFF7FAFD062101200E
:10F43000FCF73CF80023012204210320FCF7B0FD77
:10F440000BE00948BA1C8368A11C30469847002885
:10F4500003D1B91C3046FFF7E3FD0348E1780269A8
:10F460003046904707B0F0BD3C2E0020502E0020C3
:10F4700055AA0000702D002078563412BD210020BE
:10F4800040220020C4210020C0210020054902683C
:10F490000A6042684A6082688A6002690A61C068DC
:10F4A000C86070473C2E0020082805D110B50846DA
:10F4B000D1B2FEF7AFF910BD7047000070B51F4C18
:10F4C0001525A5704625E5700026A6720125E67271
:10F4D00025736673A573E2731E2A1ED0052A1CD0FD
:10F4E00002782274427862748278A274C078E074E0
:10F4F000FF2020756075A075E0752376080E607694
:10F50000080CA076080AE0762177A11C0820FFF7F6
:10F5100087FD0A20FCF7CEFF70BD02782274427886
:10F5200062748278A274C278E27402792275427998
:10F5300062758279A275C079DEE70000502E002046
:10F5400030B513490446084608302DC885B00395E8
:10F55000029301920090886904900E486168FBF75D
:10F560000FFE0490012069464872094802F0ECFD44
:10F5700000226946064802F0B3FC054802F058FC38
:10F5800022780021024802F0E9F905B030BD000000
:10F59000087C020040420F0010B5002805D0012869
:10F5A0000AD04868002807D00DE04868002803D03A
:10F5B0000846FFF7C5FF06E0044802F0D7FB01202C
:10F5C00003490006C860002010BD0000087C02004E
:10F5D0000005005001490320086070476007005093
:10F5E00070B50446012000F0D1F9002C5BD0012C4D
:10F5F0007ED108210846FCF7E5FF3F21112001F0EC
:10F60000F3FD1E212D2001F0EFFD00212C2001F043
:10F61000EBFD8D212A2001F0E7FD3E212B2001F09A
:10F62000E3FD0021152001F0DFFDFF21272001F07F
:10F63000DBFD3F21282001F0D7FD1821292001F012
:10F64000D3FD0321122001F0CFFD00210D2001F098
:10F65000CBFD0021362001F0C7FD7321262001F0EB
:10F66000C3FD0321132001F0BFFDF721182001F095
:10F67000BBFD3F211720FCF7A5FF0821172000F054
:10F680001FFE80211220FCF79DFF80211320FCF734
:10F6900099FF08210846FCF795FF142000F0E8F9CF
:10F6A000800775D078E0142410210C2001F09CFD17
:10F6B0003F21112001F098FD0021232001F094FD4D
:10F6C0008021252001F090FD4021362001F08CFDA5
:10F6D0004021152001F088FD152000F0C9F9032113
:10F6E000142000F0EDFD3D212B2001F07DFD00E018
:10F6F0004CE00D212A2001F077FD0A212D2001F098
:10F7000073FD00212C2001F06FFD0121042001F088
:10F710006BFD7321262001F067FD40210C2000F0D5
:10F72000CFFD042000F0A4F905460A2000F047FEB2
:10F73000641EE4B2E80701D1002CF2D101210420BB
:10F7400001F052FD0021012001F04EFD3D2111206C
:10F7500001F04AFD1E212D2001F046FD00212C2044
:10F7600001F042FD8D212A2001F03EFD3E212B209B
:10F7700001F03AFD4021152001F036FD80213320B3
:10F78000FCF720FF4021152001F02EFD70BDFFE7A2
:10F790000321142000F094FD052000F0FEFD70BD53
:10F7A000F8B522490020086048608860C860204998
:10F7B000086048601F4FFC68002C35D01E490026A9
:10F7C00049683A69891A0D022D0A2068A84218D89A
:10F7D0002D1A86192246107CE46900280FD00020DB
:10F7E00010747B69002B07D09169506998470028F5
:10F7F00005D002F071F802E0516990698847002C49
:10F80000E3D17978B878814206D1401CC0B2B87093
:10F81000022801D10020B87000060849800D0E5062
:10F820000120074900050860F8BD000040110140B3
:10F83000001101402C21002000150140442100202E
:10F8400000E200E038B5044601250020FFF7C8FEBD
:10F8500069465220FEF7C3FD002804D16068FEF718
:10F860008FFC002801D0284638BD03202070606836
:10F87000FEF703FE002813D10A4D0B4A287863686F
:10F880008006010E6020FEF7BDFC002808D1287814
:10F89000A1688000401CC0B2FEF778FD0028E3D0CC
:10F8A000002038BDF4210020FC21002030B52C4C74
:10F8B00083B00D46012802D003284DD139E0002045
:10F8C000FFF78EFE01A95220FEF789FD002843D1E3
:10F8D0006846FEF755FC00283ED16846FEF7CDFD90
:10F8E000002839D120786B468006010E1D4A602021
:10F8F000FEF788FC00282FD1207829468006000ECC
:10F90000FEF744FD002827D1207829468000401CBE
:10F91000C0B21031FEF73AFD00281DD120782946EB
:10F920008000801CC0B22031FEF730FD002811D0CD
:10F9300012E0287808280FD8207068782072A878FC
:10F940006072E878A0720879E0720649FF200871B9
:10F950004871002003B030BD012003B030BD00006D
:10F96000F4210020FC2100200549032008600549FE
:10F97000086001210448490381608900C160704723
:10F98000340700503C0700500005005070B50124BA
:10F99000E403134D012811D0012000F069F8302153
:10F9A0000143012001F020FC0F21012001F01CFC8B
:10F9B00003211420FCF706FEEC6070BDAC6005204E
:10F9C00000F0FDFC012000F053F8CF2101400120A0
:10F9D00001F00AFC03211420FCF7F4FD70BD0000C7
:10F9E0000005005010B50124FFF72CFF002800D1BE
:10F9F00000240020FFF7CAFF204610BD00220B495B
:10FA00000C2008600A4800690A49C006CB78C00F7C
:10FA100018430AD14878401CC0B24870022804D369
:10FA200010B54A70FCF740FB10BD7047100700503E
:10FA3000000500500422002010B5FFF7DFFFFDF79E
:10FA400005FBFDF7F5F80849C87800280AD00879C1
:10FA5000401E0006000E087104D1C87008720349E8
:10FA60000220C86010BD00000422002000050050E4
:10FA700070B50126104D82B07403EC608006400E14
:10FA8000694680300871002003460090324601A983
:10FA90000A4805F0B9FC002801D001F01DFF002242
:10FAA00001AB11460548009605F0AEFC68460079AA
:10FAB000AC6002B070BD0000000500500080020084
:10FAC00030B5164D83B0296800208847144CF320C8
:10FAD00000016946019408800120C0040290A968D1
:10FAE00068468847A1680020491C00D1A060E168F1
:10FAF000491C00D1E0602169491C00D12061616985
:10FB0000491C00D16061A169491C00D1A061E16973
:10FB1000491C00D1E06103B030BD0000EC7F020061
:10FB2000CC2F002010B50D4C84B0216800208847F0
:10FB30000C490B48C8650C480190F3200001694648
:10FB400008800120C00402902269002002A9904789
:10FB5000E1686846884704B010BD0000EC7F0200F1
:10FB600078563412702D0020CC2F002010B50224BE
:10FB700002280FD2002802D001280BD107E0084646
:10FB800000F02AF900242046FFF7CCFF02E00846E7
:10FB900000F0D9F9204610BD30B583B0FDF7C6F9A5
:10FBA000402069460872012202A9602000F01FFA75
:10FBB000002069460872012202A9622000F017FAAB
:10FBC000684600F049F8694608781E4C002803D0C2
:10FBD000632801D8122828D21B4D6A46A868810ED6
:10FBE00011708101090F51708102C90E9170C1031A
:10FBF000C90ED1700105890E80061171800E5071F9
:10FC0000684600F0E9F80020FFF78CFF0F49A8686C
:10FC1000086001204002A0600D480E4980888009DC
:10FC2000088001210846FBF741FC112005F0F0FE99
:10FC3000122005F0EDFE01204004A0604000A0600D
:10FC400003B030BD00050050CC2F0020C0210020A3
:10FC5000B02D00200E220020F0B583B0044607220C
:10FC60006946642000F08AF801277F04424E01288B
:10FC70000BD0112005F0CCFE122005F0C9FEB760B4
:10FC80007800B060012003B0F0BD6846007800F055
:10FC90003BF905090A2045436846007800F034F92D
:10FCA0000007000F281820706846407800F02CF9F3
:10FCB00005090A2045436846407800F025F9000709
:10FCC000000F281860706846807800F01DF905095B
:10FCD0000A2045436846807800F016F90007000FB7
:10FCE0002818A0706846C07800F00EF905090A20AF
:10FCF00045436846C07800F007F90007000F281850
:10FD0000A0716846007900F0FFF88006850F0A2090
:10FD100045436846007900F0F7F80007000F2818FF
:10FD2000E0706846407900F0EFF805090A20454385
:10FD30006846407900F0E8F80007000F28182071A5
:10FD40006846807900F0E0F805090A2045436846D6
:10FD5000807900F0D9F80007000F28186071112091
:10FD600005F056FE122005F053FEB7600120800416
:10FD7000B060002003B0F0BD0005005070B5160063
:10FD80000D46044626D0FDF7DBF801281AD12043A2
:10FD9000FDF770F8012815D1701EC4B2012E0BD9E1
:10FDA00000212846FDF70AF801280BD12046641EE1
:10FDB0006D1CE4B20128F3D801212846FCF7FEFFB0
:10FDC000012803D0FDF7FEF8002070BDFDF7FAF81A
:10FDD000012070BD012070BDF0B583B00446FDF771
:10FDE000A5F8402069460872012202A9602000F0AF
:10FDF000FEF8002069460872012202A9622000F084
:10FE0000F6F8267802966578A778012D01D0022DA4
:10FE100007D10C35EDB2002E02D0761EF6B200E00E
:10FE20000426681C410040180521FBF7A9F9690068
:10FE3000C91940188019B10840180721FBF7A0F92B
:10FE4000491CA1710A210298FBF79AF900010843A5
:10FE5000C0B200F059F86946087060780A21FBF7D3
:10FE60008FF900010843C0B200F04EF869464870AF
:10FE7000A0780A21FBF784F900010843C0B200F022
:10FE800043F869468870A0790A21FBF779F90001E7
:10FE90000843C0B200F038F86946C870E0780A211B
:10FEA000FBF76EF900010843C0B200F02DF8694677
:10FEB000087120790A21FBF763F900010843C0B2F9
:10FEC00000F022F86946487160790A21FBF758F979
:10FED00000010843C0B200F017F869468871072294
:10FEE000642000F084F8112005F092FD122005F046
:10FEF0008FFD01210348490481604900816003B0FE
:10FF0000F0BD000000050050C1070A0E02230146A3
:10FF100030B4194049011143042402462240D20062
:10FF20000A430825014629404900114342082A4056
:10FF30000A43C1082140114342091A400A43C0093B
:10FF400030BC1043704730B583B00446FCF7EEFF79
:10FF5000402069460871012201A9602000F047F89D
:10FF6000002569460D71012201A9622000F03FF8C9
:10FF7000012269466020FFF701FF207801280AD09E
:10FF80000028684605702BD001460122622000F04F
:10FF90002EF803B030BD202069460870012262208F
:10FFA00000F025F869460D7060780A21FBF7E8F843
:10FFB00000010843C0B2FFF7A7FF012528436946A7
:10FFC0004870A0780A21FBF7DBF800010843C0B2B3
:10FFD000FFF79AFF28436946887003226820D6E716
:10FFE00001460122622000F002F803B030BD70B576
:10FFF00016460D460446FCF7A3FF01280ED1204605
:020000040002F8
:10000000FCF738FF012809D1701E84B2002E0ED0F3
:1000100028786D1CFCF72EFF012803D0FCF7D2FFD7
:10002000002070BD2046641EA4B20028F0D1FCF769
:10003000C9FF012070BD000070B5FF210C480931D7
:100040000A4C00254550214607F03CFA00280CD107
:10005000A17E2046FF2903D001228A4005498A60FB
:10006000457605710168201D884770BD282C002049
:10007000003000400005005070B501240E4DA4036F
:10008000EC600620FCF7DAFCAC60EC609020FCF73A
:10009000D5FC0020FCF7D2FC0020FCF7CFFC0020B0
:1000A000FCF7CCFCA520FCF7C9FC0602A520FCF758
:1000B000C5FC3043AC6070BD0005005010B507F0C2
:1000C00063F810BD10B506484068002805D0804789
:1000D000002801D001F000FC10BD04F0A9FC10BD07
:1000E0007421002070B500240D460646002907D96A
:1000F000305D02F0BDF90028FAD1641CAC42F7D3A0
:1001000070BD0000F8B54B4A03211160121D11604B
:10011000494903780A781B011A430A70437801267B
:100120001B071B0F1A430A7084784B782401234362
:10013000C4782407240F23434B7005798C782D0154
:1001400040792C430007E4B2000F04431809000172
:100150008C70424011095140880848404108414094
:10016000C807C1171807000F4440200960408208E3
:10017000324D4240491C5008A97050406870C00779
:10018000C00F2F4CE870B605A6607500A560002969
:1001900009D02F46E560642000F011F9A7602948D6
:1001A00000F00DF907E0E660642000F008F9A660B1
:1001B000244800F004F9214F002038703D1D2878B4
:1001C00000060AD50126F605E660642000F0F7F87F
:1001D000A6601C4800F0F3F809E00126B605E660C9
:1001E000642000F0ECF8A660164800F0E8F82868F3
:1001F000400028603878401CC0B238701828DED320
:10020000F87800280AD00125ED05E560642000F0AB
:10021000D6F8A5600B4800F0D2F8F8BD0125AD0571
:10022000E560642000F0CBF8A560064800F0C7F850
:10023000F8BD000058070050F0210020EC210020FC
:1002400000050050DC05000030B50A4C0546216869
:1002500083B0002088470848019008486946088014
:1002600001212803890740180290A1686846884741
:1002700003B030BDEC7F0200F4420020840C00008B
:1002800030B50C4C0546216883B0002088470A48E9
:1002900001900A486946088001212803890740180F
:1002A00002902269002002A99047E16868468847C9
:1002B00003B030BDEC7F0200F4420020840C00004B
:1002C00070B50C460546FFF7D3FB2043204301469B
:1002D000284600F089FF70BD10B5FFF7ADFB00F0B8
:1002E000F9FC0948002102690846904700F0E6FB46
:1002F00002F072FDFBF78EFE00F00EFAFCF730FA0A
:10030000402000F003F810BD647F020070B50C4D72
:100310000446686802F004F8FF23610CE003F5333B
:100320000026C01871415A003346FAF753FF0146C0
:100330000022686801F0A2FF0248067070BD00004C
:100340006C79020080200020020A0A704870704711
:10035000020E0A70020C4A70020A8A70C870704756
:100360000178407809020843704701780A02417811
:100370001143827809020A43C0781102084370478A
:1003800001780022002906D00378401C491E5A40FB
:100390000906090EF8D1104670477D22D200114699
:1003A00000BF00BF00BF00BF00BF00BF491E09045F
:1003B000090CF5D1401E0004000CF0D1704700BFBD
:1003C00000BF00BF00BF00BF00BF401E0004000C04
:1003D000F5D1704701B46A461078517811705070A9
:1003E000108801B07047000070B586B000F086F844
:1003F00000F0F2FE07F00AF97D20C000FFF7CDFF04
:100400002D4C01256079012812D02C486E460FC86A
:100410000FC60A20694688700B2048700C200870AF
:100420000022274804F060FF264869038160657157
:100430002548016800208847244801680020884733
:10044000234E0020316888472248016800208847F1
:1004500000F078F8204A6946D07D0874908C030A31
:100460004B748874508A020ACA740875326904A9E8
:10047000032090471948016800208847FBF7C2FC19
:10048000FEF79AFA164825700026066016481549A8
:100490004160C6608560FCF70DF926711348E57070
:1004A0000168002088471248E060124964200880F3
:1004B0001148608106B070BD90210020747A02005E
:1004C0000080020000050050EC7B020084800200E6
:1004D00008800200EC7F0200702D0020647F020083
:1004E00000000140FFFF1D00000501401C800200CC
:1004F000709914003A220020840C000010B50020EE
:1005000005F07EFA022005F07BFA072005F078FA64
:10051000062005F075FA032005F072FA012107485C
:10052000802282608160064A00211161042181607D
:10053000402181600821816010BD0000000500504D
:1005400090210020F0B51D4E83B03168002088470F
:100550001B4D64206946019508800120000402902B
:10056000B1686846884700240127B1686846884713
:100570001448E96D814208D0FF20F530FFF70DFFE8
:10058000641CE4B2032CF0D301E0032C05D300F08B
:1005900065F800F025F90C4847707520C043A88421
:1005A00010220A490A48FAF757FE0A48017C3943E3
:1005B000017414206870AF7003B0F0BDEC7F0200CE
:1005C000702D00207856341290210020E47E020025
:1005D000962D0020B02D002070B519481749C16331
:1005E000194C1849A1801E21218101222274FF216A
:1005F000A1720025A5817D21E581C90001821349F1
:100600008181042181730323C37545652176457576
:10061000022185630170142141708270627610227C
:100620000B490C48FAF718FE0020FBF72FFBFBF7ED
:100630004BFB094800F005FEA57670BD78563412D4
:10064000702D002070170000B02D002088130000CE
:10065000E47E0200962D00204022002070B5642127
:100660002348FAF712FE2348264C027941791202F8
:100670008918C278807812040006101809181C48DE
:10068000FF2201641C49C1637521C94381841B4950
:1006900041821B49A180FA21E1801E212181012193
:1006A0002174A2720025A5817D22E581D2000282FB
:1006B000154A8281042282730323C375456522761D
:1006C0004575022285630270142242708170617642
:1006D000817510220D490E48FAF7BEFD0020FBF788
:1006E000D5FAFBF7F1FA0B4800F0ABFDA57670BD2B
:1006F000702D0020F9200020785634126868000020
:1007000070170000B02D002088130000E47E020066
:10071000962D00204022002010B5194C194920695F
:10072000401C2061884202D317490120C8602089FB
:10073000002806D0401E0004000C208101D100F0EA
:100740004FF8E088002804D0401E0004000CE08030
:100750000DD0A0780021002802D0A17012202081A5
:100760006078002802D061703E20E08010BDBFF3A9
:100770004F8F07490548C860BFF34F8F00BFFDE7A3
:1007800090210020F0490200000500500400FA0505
:1007900000ED00E010B50E4C84B06079012815D052
:1007A0000C480FC802920191009003930A206946F9
:1007B00088700B2048700C2008700022064804F056
:1007C00093FD0120054A41039160607104B010BDA2
:1007D00090210020747A0200008002000005005081
:1007E00010B50C4C84B02168002088470B480A499A
:1007F000C1650190642069460880012000040290D0
:100800002269002002A99047E1686846884704B041
:1008100010BD0000EC7F020078563412702D0020CD
:10082000044948780B46401C48708A7842401A7048
:1008300088707047AC21002007480078C10709D0B4
:10084000064A0223117819431170800702D504204B
:100850000143117070470000AC210020AF2100203F
:1008600003480068C00702D0034902480860704787
:10087000000401403546526E000601400149012046
:1008800008607047000001402B4A108CC0B201285C
:1008900017D1918C090714D1118D09060B0F03D1C3
:1008A000938D1B061B0F0FD0090F012903D1938DC8
:1008B0001B061B0F08D0032903D1918D0906090FD0
:1008C00002D0012807D012E01D4B1C495960D913F2
:1008D0001C4B996102E0918C090708D1118D090622
:1008E000090F042903D1918D0906090F0AD00128A7
:1008F00021D1908C00071ED1108D0006000F0A2810
:1009000004D007E0104901208860F5E7918D0906C1
:10091000090F05D00D280ED1908D0006000F0AD1C9
:100920000A480168012904D00949016001680129C8
:10093000FCD1C02141617047C00F00F0DFFF07C04C
:1009400000050040006C00400006004000EC06403E
:1009500075930000F8B50F4D032004270024000212
:100960002E18A000FF30413080B2012109042A581E
:10097000A140002A08D072680A4205D000212950FF
:10098000054A516812689047641CE4B2BC42E8D33F
:10099000F8BD000000800040102C002006480168CF
:1009A000012907D110B500210160FFF739FFFFF7DA
:1009B00043FF10BD7047000040A1004010B500F09B
:1009C00067FA0023064C074A6370A3701846FF219C
:1009D0001154401CC0B20828FAD3237010BD000087
:1009E000E2210020B42F002070B50C460646FEF729
:1009F000CDFA032231462B48FAF759FC2A4D00283C
:100A000003D12A49E86B884233D0042C05D3214610
:100A10003046FDF709F8012818D1082C1CD32346CD
:100A20003246E96B286C05F0A1FC01280ED1234663
:100A30003246E96B286C05F06BFE012806D123468F
:100A40003246E96B286C06F0ADF8C0B2002810D031
:100A50007F2811D005281AD0FBF7C8FA1449487826
:100A6000401CC0B24870052802D3134911480880C1
:100A700070BDFBF719FB70BD01210520FAF716FDCB
:100A80000023012204210220FBF78AFA70BD002313
:100A9000012204210320FBF783FA04210320FAF743
:100AA00005FD70BDE6210020702D0020785634121F
:100AB00028220020FC0A000016220020F8B501249C
:100AC00024042046FBF7ECFD7F4D00277F4E0028D5
